{
  "_format": "hh-sol-artifact-1",
  "contractName": "EAAC",
  "sourceName": "contracts/EAAC.sol",
  "abi": [
    {
      "inputs": [],
      "name": "InvalidInitialization",
      "type": "error"
    },
    {
      "inputs": [],
      "name": "NotInitializing",
      "type": "error"
    },
    {
      "inputs": [
        {
          "internalType": "address",
          "name": "owner",
          "type": "address"
        }
      ],
      "name": "OwnableInvalidOwner",
      "type": "error"
    },
    {
      "inputs": [
        {
          "internalType": "address",
          "name": "account",
          "type": "address"
        }
      ],
      "name": "OwnableUnauthorizedAccount",
      "type": "error"
    },
    {
      "anonymous": false,
      "inputs": [
        {
          "indexed": false,
          "internalType": "uint64",
          "name": "version",
          "type": "uint64"
        }
      ],
      "name": "Initialized",
      "type": "event"
    },
    {
      "anonymous": false,
      "inputs": [
        {
          "indexed": true,
          "internalType": "address",
          "name": "previousOwner",
          "type": "address"
        },
        {
          "indexed": true,
          "internalType": "address",
          "name": "newOwner",
          "type": "address"
        }
      ],
      "name": "OwnershipTransferred",
      "type": "event"
    },
    {
      "anonymous": false,
      "inputs": [
        {
          "indexed": true,
          "internalType": "address",
          "name": "operator",
          "type": "address"
        },
        {
          "indexed": false,
          "internalType": "string",
          "name": "identifier",
          "type": "string"
        }
      ],
      "name": "Register",
      "type": "event"
    },
    {
      "anonymous": false,
      "inputs": [
        {
          "indexed": true,
          "internalType": "address",
          "name": "operator",
          "type": "address"
        },
        {
          "indexed": false,
          "internalType": "string",
          "name": "identifier",
          "type": "string"
        },
        {
          "indexed": false,
          "internalType": "string",
          "name": "report_hash",
          "type": "string"
        }
      ],
      "name": "Report",
      "type": "event"
    },
    {
      "inputs": [],
      "name": "initialize",
      "outputs": [],
      "stateMutability": "nonpayable",
      "type": "function"
    },
    {
      "inputs": [],
      "name": "owner",
      "outputs": [
        {
          "internalType": "address",
          "name": "",
          "type": "address"
        }
      ],
      "stateMutability": "view",
      "type": "function"
    },
    {
      "inputs": [
        {
          "internalType": "address",
          "name": "operator",
          "type": "address"
        },
        {
          "internalType": "string",
          "name": "identifier",
          "type": "string"
        }
      ],
      "name": "register_agent",
      "outputs": [],
      "stateMutability": "nonpayable",
      "type": "function"
    },
    {
      "inputs": [
        {
          "internalType": "address",
          "name": "operator",
          "type": "address"
        }
      ],
      "name": "register_agent_generic",
      "outputs": [],
      "stateMutability": "nonpayable",
      "type": "function"
    },
    {
      "inputs": [],
      "name": "renounceOwnership",
      "outputs": [],
      "stateMutability": "nonpayable",
      "type": "function"
    },
    {
      "inputs": [
        {
          "internalType": "address",
          "name": "operator",
          "type": "address"
        },
        {
          "internalType": "string",
          "name": "identifier",
          "type": "string"
        },
        {
          "internalType": "string",
          "name": "report_hash",
          "type": "string"
        }
      ],
      "name": "report_activity",
      "outputs": [],
      "stateMutability": "nonpayable",
      "type": "function"
    },
    {
      "inputs": [
        {
          "internalType": "address",
          "name": "operator",
          "type": "address"
        },
        {
          "internalType": "string",
          "name": "report_hash",
          "type": "string"
        }
      ],
      "name": "report_activity_generic",
      "outputs": [],
      "stateMutability": "nonpayable",
      "type": "function"
    },
    {
      "inputs": [
        {
          "internalType": "address",
          "name": "newOwner",
          "type": "address"
        }
      ],
      "name": "transferOwnership",
      "outputs": [],
      "stateMutability": "nonpayable",
      "type": "function"
    }
  ],
  "bytecode": "0x608060405234801561001057600080fd5b50610bd2806100206000396000f3fe608060405234801561001057600080fd5b50600436106100885760003560e01c80638da5cb5b1161005b5780638da5cb5b146100d9578063909e0c03146100f7578063dc05326b14610113578063f2fde38b1461012f57610088565b80634a7aa24f1461008d578063715018a6146100a95780638129fc1c146100b35780638b524fc9146100bd575b600080fd5b6100a760048036038101906100a2919061087c565b61014b565b005b6100b16101a6565b005b6100bb6101ba565b005b6100d760048036038101906100d29190610911565b610348565b005b6100e1610397565b6040516100ee919061094d565b60405180910390f35b610111600480360381019061010c9190610968565b6103cf565b005b61012d60048036038101906101289190610968565b610424565b005b61014960048036038101906101449190610911565b610479565b005b8473ffffffffffffffffffffffffffffffffffffffff167f6830577dc8529c904df045866a05b8437db01ea82bb2bcacd54b975110de7053858585856040516101979493929190610a26565b60405180910390a25050505050565b6101ae6104ff565b6101b86000610586565b565b60006101c461065d565b905060008160000160089054906101000a900460ff1615905060008260000160009054906101000a900467ffffffffffffffff1690506000808267ffffffffffffffff161480156102125750825b9050600060018367ffffffffffffffff16148015610247575060003073ffffffffffffffffffffffffffffffffffffffff163b145b905081158015610255575080155b1561028c576040517ff92ee8a900000000000000000000000000000000000000000000000000000000815260040160405180910390fd5b60018560000160006101000a81548167ffffffffffffffff021916908367ffffffffffffffff16021790555083156102dc5760018560000160086101000a81548160ff0219169083151502179055505b6102e533610685565b83156103415760008560000160086101000a81548160ff0219169083151502179055507fc7f505b2f371ae2175ee4913f4499e1f2633a7b5936321eed1cdaeb6115181d260016040516103389190610aba565b60405180910390a15b5050505050565b8073ffffffffffffffffffffffffffffffffffffffff167f6ba0831d2f62ae5cbf7214bcc1d79c5da1d705f12811efda0beaa840006f874e60405161038c90610b21565b60405180910390a250565b6000806103a2610699565b90508060000160009054906101000a900473ffffffffffffffffffffffffffffffffffffffff1691505090565b8273ffffffffffffffffffffffffffffffffffffffff167f6ba0831d2f62ae5cbf7214bcc1d79c5da1d705f12811efda0beaa840006f874e8383604051610417929190610b41565b60405180910390a2505050565b8273ffffffffffffffffffffffffffffffffffffffff167f6830577dc8529c904df045866a05b8437db01ea82bb2bcacd54b975110de7053838360405161046c929190610b65565b60405180910390a2505050565b6104816104ff565b600073ffffffffffffffffffffffffffffffffffffffff168173ffffffffffffffffffffffffffffffffffffffff16036104f35760006040517f1e4fbdf70000000000000000000000000000000000000000000000000000000081526004016104ea919061094d565b60405180910390fd5b6104fc81610586565b50565b6105076106c1565b73ffffffffffffffffffffffffffffffffffffffff16610525610397565b73ffffffffffffffffffffffffffffffffffffffff1614610584576105486106c1565b6040517f118cdaa700000000000000000000000000000000000000000000000000000000815260040161057b919061094d565b60405180910390fd5b565b6000610590610699565b905060008160000160009054906101000a900473ffffffffffffffffffffffffffffffffffffffff169050828260000160006101000a81548173ffffffffffffffffffffffffffffffffffffffff021916908373ffffffffffffffffffffffffffffffffffffffff1602179055508273ffffffffffffffffffffffffffffffffffffffff168173ffffffffffffffffffffffffffffffffffffffff167f8be0079c531659141344cd1fd0a4f28419497f9722a3daafe3b4186f6b6457e060405160405180910390a3505050565b60007ff0c57e16840df040f15088dc2f81fe391c3923bec73e23a9662efc9c229c6a00905090565b61068d6106c9565b61069681610709565b50565b60007f9016d09d72d40fdae2fd8ceac6b6234c7706214fd39c1cd1e609a0528c199300905090565b600033905090565b6106d161078f565b610707576040517fd7e6bcf800000000000000000000000000000000000000000000000000000000815260040160405180910390fd5b565b6107116106c9565b600073ffffffffffffffffffffffffffffffffffffffff168173ffffffffffffffffffffffffffffffffffffffff16036107835760006040517f1e4fbdf700000000000000000000000000000000000000000000000000000000815260040161077a919061094d565b60405180910390fd5b61078c81610586565b50565b600061079961065d565b60000160089054906101000a900460ff16905090565b600080fd5b600080fd5b600073ffffffffffffffffffffffffffffffffffffffff82169050919050565b60006107e4826107b9565b9050919050565b6107f4816107d9565b81146107ff57600080fd5b50565b600081359050610811816107eb565b92915050565b600080fd5b600080fd5b600080fd5b60008083601f84011261083c5761083b610817565b5b8235905067ffffffffffffffff8111156108595761085861081c565b5b60208301915083600182028301111561087557610874610821565b5b9250929050565b600080600080600060608688031215610898576108976107af565b5b60006108a688828901610802565b955050602086013567ffffffffffffffff8111156108c7576108c66107b4565b5b6108d388828901610826565b9450945050604086013567ffffffffffffffff8111156108f6576108f56107b4565b5b61090288828901610826565b92509250509295509295909350565b600060208284031215610927576109266107af565b5b600061093584828501610802565b91505092915050565b610947816107d9565b82525050565b6000602082019050610962600083018461093e565b92915050565b600080600060408486031215610981576109806107af565b5b600061098f86828701610802565b935050602084013567ffffffffffffffff8111156109b0576109af6107b4565b5b6109bc86828701610826565b92509250509250925092565b600082825260208201905092915050565b82818337600083830152505050565b6000601f19601f8301169050919050565b6000610a0583856109c8565b9350610a128385846109d9565b610a1b836109e8565b840190509392505050565b60006040820190508181036000830152610a418186886109f9565b90508181036020830152610a568184866109f9565b905095945050505050565b6000819050919050565b600067ffffffffffffffff82169050919050565b6000819050919050565b6000610aa4610a9f610a9a84610a61565b610a7f565b610a6b565b9050919050565b610ab481610a89565b82525050565b6000602082019050610acf6000830184610aab565b92915050565b7f67656e6572696300000000000000000000000000000000000000000000000000600082015250565b6000610b0b6007836109c8565b9150610b1682610ad5565b602082019050919050565b60006020820190508181036000830152610b3a81610afe565b9050919050565b60006020820190508181036000830152610b5c8184866109f9565b90509392505050565b60006040820190508181036000830152610b7e81610afe565b90508181036020830152610b938184866109f9565b9050939250505056fea264697066735822122035bae39b67b8e28735700c241e1782256b17a259e51ea496c2c15d06b24b96a564736f6c63430008140033",
  "linkReferences": {},
  "deployedLinkReferences": {}
}